:10000000EBC2000022C3000020C300001EC300009A
:100010001CC300001AC3000018C3000016C3000070
:1000200014C3000012C300000C94E0270C94AC2809
:100030000C9449230AC3000008C3000006C3000053
:1000400004C300000C942C1A00C30000FEC2000080
:100050000C94011B0C94C023F8C20000F6C20000EF
:10006000F4C20000F2C20000F0C20000EEC20000C4
:10007000ECC20000EAC20000E8C20000E6C20000D4
:10008000E4C20000E2C20000E0C20000DEC20000E4
:10009000DCC20000DAC20000D8C20000D6C20000F4
:1000A000D4C20000D2C20000D0C2000029001E004D
:1000B0001F0020002100220023002400250026002C
:1000C00027002D002E002A004A002B0014001A00E1
:1000D0000800150017001C0018000C001200130087
:1000E0002F00300031004B003900040016000700DB
:1000F00009000A000B000D000E000F003300340051
:10010000000028004E00E10000001D001B0006005A
:100110001900050011001000360037003800E50016
:1001200052004D00E000E300E200000000002C005F
:1001300000000000215200006500E4005000510062
:100140004F0035003A003B003C003D003E003F00C0
:100150004000410042004300440045004C0049007B
:10016000007C0100520001000100010001000100BB
:100170000100010001000100010001000100010077
:10018000500051004F00010001000100010001007A
:1001900001000100010000000100010023780000BF
:1001A0002578277821780378027804780100010007
:1001B00001000100AE00A900A80024782678287864
:1001C0000000000020780000000001000000010095
:1001D0000100AC00AA00AB001E0F0500047F3F1F0A
:1001E000643214643214783C1E1E140A052223253E
:1001F0002628292A2C2D2F3032333536383A3B3DEC
:100200003E4042434547494A4C4E50515355575939
:100210005A5C5E6062646668696B6D6F7173757756
:10022000797B7D7F81838587898A8C8E9092949655
:10023000989A9C9E9FA1A3A5A7A8AAACAEAFB1B364
:10024000B4B6B8B9BBBCBEBFC1C2C3C5C6C7C9CAB4
:10025000CBCCCDCED0D1D2D2D3D4D5D6D7D7D8D976
:10026000D9DADADBDBDBDCDCDCDCDCDDDDDDDDDCD4
:10027000DCDCDCDCDBDBDBDADAD9D9D8D7D7D6D5E6
:10028000D4D3D2D2D1D0CECDCCCBCAC9C7C6C5C3A8
:10029000C2C1BFBEBCBBB9B8B6B4B3B1AFAEACAAF5
:1002A000A8A7A5A3A19F9E9C9A98969492908E8CA5
:1002B0008A89878583817F7D7B79777573716F6D7F
:1002C0006B6968666462605E5C5A59575553515059
:1002D0004E4C4A4947454342403E3D3B3A3836350D
:1002E0003332302F2D2C2A292826252322FFAA7FBE
:1002F0005540000000000000000000000001010265
:1003000003040506080A0C0F1114181C2024292EBA
:1003100033393F464C535B626A7179818A929AA263
:10032000AAB2B9C1C8CFD5DCE1E7EBF0F4F7FAFC2B
:10033000FDFEFFFEFDFCFAF7F4F0EBE7E1DCD5CFC4
:10034000C8C1B9B2AAA29A928A8179716A625B53D2
:100350004C463F39332E2924201C1814110F0C0A47
:10036000080605040302010100000000000000006F
:10037000000000010101010101010101020202026C
:10038000020202020203030303030303030404043F
:100390000404040405050505050606060606070708
:1003A00007070708080808090909090A0A0A0B0BC0
:1003B0000B0C0C0C0D0D0D0E0E0E0F0F0F1010115F
:1003C00011111212131314141515161617171818E5
:1003D00019191A1A1B1B1C1D1D1E1E1F202021224D
:1003E00022232424252626272829292A2B2C2D2D93
:1003F0002E2F30313232333435363738393A3B3CB0
:100400003D3E3F404142434445464748494A4C4DA2
:100410004E4F50515354555658595A5B5D5E5F616B
:100420006264656668696B6C6D6F707273757778FE
:100430007A7B7D7E8082838587888A8C8E8F91935C
:100440009596989A9C9EA0A2A3A5A7A9ABADAFB183
:10045000B3B5B7BABCBEC0C2C4C6C9CBCDCFD1D468
:10046000D6D8DBDDDFE2E4E7E9EBEEF0F3F5F8FA0E
:10047000FDFF0A03580044003600380000000C035A
:100480007800690075006400690000000403090435
:1004900009023B00020100A0FA0904000001030167
:1004A0000100092111010001224400070581030810
:1004B00000010904010001030000000921110100ED
:1004C0000122B6000705820320000112010002008C
:1004D0000000084478686801000102000105010974
:1004E00002A10185020901A10005091901290815C8
:1004F00000250195087501810205010930093115B2
:1005000081257F95027508810609381581257F951B
:100510000175088106050C0A38021581257F9501B1
:1005200075088106C0C005010980A1018503190174
:100530002AB700150126B700950175108100C00586
:100540000C0901A101850419012AA002150126A0A8
:1005500002950175108100C005010906A1018506FB
:10056000050719E029E715002501950875018102A5
:100570000507190029EF1500250195F07501810285
:100580000508190129059505750191029501750365
:100590009101C005010906A101050719E029E71528
:1005A00000250195087501810295017508810105F5
:1005B00007190029FF150026FF0095067508810020
:1005C00005081901290515002501950575019102F8
:1005D000950175039101C00011241FBECFEFDAE031
:1005E000DEBFCDBF04B603FE19C080919503909184
:1005F0009603A0919703B09198038730904BA74042
:10060000B04B61F4109295031092960310929703E9
:1006100010929803E0E0F8E3099500C011E0A0E033
:10062000B1E0EEE0F9E502C005900D92A63EB107FB
:10063000D9F723E0A6EEB1E001C01D92A539B207BB
:10064000E1F70E9445120C94E22BDACC8230E0F400
:100650006530D0F44F30C0F450E09FE0699F400D0A
:10066000511D112490E09195819591098B7490E032
:10067000FC01E40FF51FEE0FFF1FE455FF4F8591BE
:100680009591282F822F089521E090E0FBCFDECFB7
:10069000089581E0089581E00895FBCF089581E0F9
:1006A000089581E00895FDCF089508950895FDCF40
:1006B000089508950895A6E0B0E0E1E6F3E00C9413
:1006C000EB2A49835A839E833091ED0189819A8177
:1006D000311117C03E81311589F0211579F080D58F
:1006E000182F682F89819A815AD569817A81812F43
:1006F0000E940C0F2696E3E00C94072B61D5182F6F
:10070000F4CF6ED569817A81F3CFFC01262F408129
:1007100051816281738184819581CDCFCF93DF93A5
:10072000EC0161E0F2DFBE01B6DF811529F061E086
:10073000CE01EBDFBE01B1DFDF91CF9108950F93C2
:100740001F93CF93DF93EC0160E0DFDF8C01BE01EC
:10075000ADDFBE01C801ABDFDF91CF911F910F91DB
:1007600008950F931F93CF93DF93EC0161E0CDDFEA
:100770008C018D8181110E949518BE01C8018FDF07
:10078000811106C080E0DF91CF911F910F910895F4
:10079000BE01C80188DF8115A9F3BE01C8010E940E
:1007A0009119811579F3BE01C8010E948A20811533
:1007B00049F3BE01C8010E94011D811519F3BE0154
:1007C000C8010E94D81C8115E9F2BE01C8010E942F
:1007D0005B128115B9F2BE01C8010E940F1081158C
:1007E00089F2BE01C8010E942110811559F2BE0193
:1007F000C8010E943B10C7CF21E030E002C0220FA9
:10080000331F8A95E2F7C90105C4CF93C82F81E051
:1008100090E00C2E02C0880F991F0A94E2F70E9404
:10082000140D8C2FE9DFCF91089581E0089581E0C8
:100830000895FBCF0895CF93C82F9BD38C2FF7DF5C
:100840008C2FF7DFCF91089581E0F5DF0C94E4233E
:1008500080E0F1DF0C9408242CDF0E94E22280E08B
:100860000E94741920C00E94CD181FD023DF0C9461
:10087000E62281E0089581FD02C02A9A08952A980F
:100880000895CF93DF93D82FF4DFC82F811511F08F
:100890008D2FF1DF8C2FDF91CF910895229A2A9A24
:1008A0000895EFCF089580E0FCCF0E94D820F9CFC3
:1008B000CF930E94D820C82F8091E8018C1771F047
:1008C000C093E8010E94B4236093E9017093EA01A8
:1008D0008093EB019093EC018C2FE3DFCF9108958F
:1008E000ADE0B0E0E6E7F4E00C94EC2A48875987E5
:1008F0006A877B878C879D87911180D71F8286E0CE
:10090000FE0138969E012F5F3F4FD90101900D9255
:100910008A95E1F78D8181110CC029813A814B8143
:100920005C816D817E818F81B4D62D96E2E00C943E
:10093000082BCE010196F2DE8111EFCFF6CFFC013C
:100940002481213019F4808191817DC4089561153D
:1009500021F00E945D1E0C94121F0E949D1EFBCF71
:10096000CF93C82F8115B9F08238B9F40E94E720DF
:1009700081FD11C089E30E941422CBD78FEF97EE3F
:1009800023E0815090402040E1F700C0000089E35F
:100990000E942B22BED7CF910895833899F40E94EC
:1009A000E72080FDF8CF83E50E941422B2D78FEFB5
:1009B00091EE24E0815090402040E1F700C000001B
:1009C00083E5E6CF843899F40E94E72082FDE3CFE7
:1009D00087E40E9414229DD78FEF91EE24E081508E
:1009E00090402040E1F700C0000087E4D1CF845060
:1009F000813A90F48C2F0E94241C8111CCCF8C2F33
:100A00000E948E21811521F08C2F0E942B2281D7EC
:100A10008C2F0E941422BECF8C2F805E883048F429
:100A200081E0C1FD84E0C0FD880FC2FD8295C7D67C
:100A3000B1CF8C2F855A833030F48C2F8452990B90
:100A40000E941A21A8CFEC2FE85AEB3150F4F0E0C5
:100A5000EE0FFF1FED5CFE4F808191810E944121CE
:100A60009ACF8C2F8D5C833108F095CF61E08C2F6D
:100A70006EDF91CF811509F44EC0823861F40E9477
:100A8000E72081FF48C089E30E94142242D789E30E
:100A90000E942B223EC7833851F40E94E72080FF3A
:100AA0003AC083E50E94142234D783E5F1CF84381D
:100AB00051F40E94E72082FF2EC087E40E94142296
:100AC00028D787E4E5CF982F9450913A08F3982FD0
:100AD000905E983050F4982F81E091FD84E090FD75
:100AE000880F92FD829571D6D5CF982F955A933065
:100AF00020F480E090E00C941A21982F985A9B31B2
:100B000020F480E090E00C944121982F9D5C93317B
:100B100010F460E01CCF08951F93CF93DF93182F3C
:100B2000EB011EDF209731F4812FA4DFDF91CF91FD
:100B30001F9108958FE99FE00197F1F700C0000031
:100B40002197F0CF60E570E0893311F060E070E04C
:100B5000E3CF811511F033D6DCC60895811511F06D
:100B600034D6D7C60895A0E0B0E0E9EBF5E00C94E8
:100B7000E62A6C01D62FC72FFC011581068102954C
:100B80000F7012D6E82E8115E9F0E12E1115D1F083
:100B90008C2F807F803461F08D2F805E8830E0F074
:100BA0008C2F807E803221F4D230B0F00115A1F07C
:100BB0008091420382FF10C082E0CFD6F5D591E04C
:100BC0008927E82EEC2FE295EF70C03C78F5F0E035
:100BD000EC51F44D0C94C62AE12CF4CF0C2F0F707D
:100BE000C03110F00295007F111581F0011549F018
:100BF0008D2F805E883010F0D11105C0802FDFD599
:100C000088D68D2F40C0802FEBD5FACF8D2F32DFC5
:100C1000011561F08D2F805E883010F0D11103C076
:100C2000802FD3D502C0802FE1D573D6E11409F40B
:100C3000B3C0B6D580FDB0C0F6011582ABD51AD2CF
:100C4000C60168D1A7D524D2A7C08C2F8F70F82EEB
:100C5000C07FC03219F0F29480EFF822D13038F022
:100C600079F1111509F438C00115C9F0CACF809186
:100C7000420382FD10C0111541F0F11419F08F2DBF
:100C80009ED547D680E06CDED1CF80E0F3DEF11454
:100C900069F28F2DC6CF111551F0013018F48F2D48
:100CA00058DFC4CF09F0C2CF8F2DBCD5BFCF011103
:100CB000BDCF8F2D53DF8F2DC0D58F2DA5D5B6CFAE
:100CC000111521F0063008F0B1CFE9CF053008F05A
:100CD000ADCF8F2D43DFAACF0115D9F3D93349F416
:100CE0008FEF97EE23E0815090402040E1F700C065
:100CF00000008D2FBFDE9ACF8C2F8695869583704E
:100D0000813060F009F092CF8D2F9C2F93701111DC
:100D100002C080E090E00E94412188CF8D2F9C2F5F
:100D20009370111102C080E090E00E941A217ECFE2
:100D3000612F8D2F0CDE7ACF8C2F8370C1F51111AE
:100D400028C04D2F429546954770440F440F2D2FD4
:100D50002F7030E0042E02C0220F331F0A94E2F7F6
:100D600080E090E0D4FF09C08FE090E002C0880FDF
:100D7000991F4A95E2F780959095C695C695C370E0
:100D8000822B932BC23079F0C33079F0C13049F017
:100D90004AD10E94D82085DDCDB7DEB7E8E00C94BB
:100DA000022B3AD1F6CF46D1F4CF34D1F2CF111580
:100DB00059F1C0FFEECF4D2F429546954770440F35
:100DC000440F2D2F2F7030E0042E02C0220F331F4E
:100DD0000A94E2F780E090E0D4FF09C08FE090E051
:100DE00002C0880F991F4A95E2F780959095C695A5
:100DF000C695C370822B932BC23061F0C33061F073
:100E0000C13031F06AD1C5CF823008F4C2CFD3CF20
:100E10005DD1BFCF69D1BDCF1AD1BBCFCF70111576
:100E200029F08C2F27D18D2F94DEB3CF8D2F96DE16
:100E30008C2F2ED1AECFD23F31F168F4D03FC1F02C
:100E4000D13F89F0111509F43EC0011509F438C0ED
:100E50008D2F86DD9ECFD33FE1F0D43F99F780916F
:100E6000420382FD1EC08C2F8F71111511F30FC02C
:100E7000111539F0053008F08CCF8C2F8F7118D1F7
:100E800088CF0630F8CF8C2F8F711111D2CFF2D0CE
:100E900080CF111521F08C2F8F71E3D07ACFDED067
:100EA00078CF111529F063E08C2F8F713FD571CF6A
:100EB00081E053D5023008F46CCF82E04ED569CF83
:100EC0008C2F8F71E4CF011571F0D93349F48FEF76
:100ED00097EE23E0815090402040E1F700C00000F1
:100EE0008D2FC8DD56CF8C2F8F71A3CF0F931F93FB
:100EF000CF93DF93EC01688179818D81ADD18C0135
:100F0000FAD087D0B801CE012EDEDF91CF911F91AC
:100F10000F910895CF93DF93EC018C81811581F0BF
:100F2000CE011FDC81110FC03FD4811549F08D81A6
:100F3000811531F08091420382FF02C082E00DD51D
:100F4000DF91CF910895CE01D1DFCE01F8DBF8CF4C
:100F500080E090E00E941A2180E090E00E94412110
:100F60004DD4D7D40E942B1F0C94121F0E944222F2
:100F7000EFCF33D4FBCF282F92959F70963099F006
:100F800060F4925F9F70923030F4203FB1F038F4FB
:100F900081E0283E38F080E008959A5FF3CF81E049
:100FA000243FC9F7089591E0813F09F090E081E086
:100FB000283E08F080E0892B089581E00895FC0127
:100FC0002481211521F0808191813DD1D4CF80E011
:100FD0000895A6E0B0E0EFEEF7E00C94EC2A269638
:100FE000E2E00C94082BA7E0B0E0E9EFF7E00C9406
:100FF000EC2A2796E2E00C94082B0895FECF089582
:10100000FDCF0895FADFFCDF809318029093190258
:1010100008950895F7CF089520911802309119028C
:10102000822B932BEFCF209118023091190282234B
:101030009323E8CF20911802309119028227932739
:10104000E1CFDBCF0895FDCF0895D7CF0895FDDF21
:10105000FADF8093160290931702089580E090E0E3
:10106000F6CF21E030E002C0220F331F8A95E2F76D
:10107000C901EDCF21E030E002C0220F331F8A9575
:10108000E2F78091160290911702822B932BDFCF0B
:1010900021E030E002C0220F331F8A95E2F720954D
:1010A0003095809116029091170282239323CFCF1F
:1010B00021E030E002C0220F331F8A95E2F78091D1
:1010C00016029091170282279327C1CF2091160212
:1010D00030911702822B932BBACF209116023091B8
:1010E000170282239323B3CF209116023091170267
:1010F00082279327ACCF0895CF93C1E061FDC4E070
:1011000060FDCC0F62FDC29593E0769567959A9548
:10111000E1F7660F771F660F771F460F571FFA011B
:1011200040E050E090E06191DF019C01042E02C09C
:10113000369527950A94E2F72695220B26272C232D
:1011400026272E934F5F5F4F4430510561F7CF91B3
:101150000895A82FA77023E0969587952A95E1F723
:10116000880F991F880F991F680F791FFB0140E0B6
:1011700050E080E0219130E00A2E02C0369527959C
:101180000A94E2F72170042E01C0220F0A94EAF7B4
:10119000822B4F5F5F4F4430510561F70895262F32
:1011A000953068F48F3058F4682F70E08FE0989F86
:1011B000600D711D11244EEE51E0822F9DCF0895D8
:1011C000292F953058F48F3048F490E06EEE71E09E
:1011D0003FE0239F800D911D1124BBCF80E0089537
:1011E000CF92DF92FF920F931F93CF93DF936C0107
:1011F0000091160210911702809118029091190225
:10120000082B192BCFE0D0E081E090E00C2E02C03B
:10121000880F991F0A94E2F780239123892B61F4A8
:10122000219790F7F12C8F2DDF91CF911F910F9186
:10123000FF90DF90CF900895FC2EB6018C2FF7D54C
:10124000019771F3F0CFCF93DF93EC01C9DFBE01BB
:10125000EED5DF91CF9108951F93CF93DF93EB01EC
:101260009091ED01911531F0CB01EDDFDF91CF9140
:101270001F910895811551F0CB01B2DF182F682F0F
:10128000CE018DDFBE01812FD2D5F0CFCB0198DF0B
:10129000182FF8CF0F931F9300911A0280911B0211
:1012A000801303C01F910F91089587E0089FF001FC
:1012B0001124E45EFD4F208131814281538164819C
:1012C0007581868190DE0F5F1F4F0770E7CF2091F9
:1012D000540230915502409156025091570260914C
:1012E00058027091590280915A027DCE80915A0223
:1012F000803170F480915902811551F0E0911A0209
:1013000020911B0230915502409154022E1301C0CE
:101310000895BF0187E0E89FF0011124DF01A45E7A
:10132000BD4F14968C911497811549F111968C91AB
:101330001197831324C08C91841321C015968C912E
:10134000159781111CC012968D919D91A091560206
:10135000B09157028A1B9B0B883C910580F48091C9
:101360005A028F70806180935A02EE5DFD4F80813A
:101370008F708061808384E592E0CCDD8BCF6F5FDE
:101380007F4FFB01E770C2CFE0911A0290911B02E0
:10139000E91302C080E008959F0157E0E59FF00146
:1013A0001124E45EFD4F5181561306C0508158133D
:1013B00003C05581541305C02F5F3F4FF901E770FB
:1013C000E7CF81E008958F929F92AF92BF92DF9214
:1013D000EF92FF920F931F93CF93DF93CDB7DEB7BA
:1013E0002D970FB6F894DEBF0FBECDBF8C0186E0FF
:1013F000F801DE01189601900D928A95E1F7F80147
:10140000F580848194E5892E92E0992E909158027E
:10141000911117C0811509F4EFC0F11409F42EC120
:10142000C801CDDD811509F429C187E0F801D40197
:1014300001900D928A95E1F7C40181DA57DF47DF09
:10144000DBC0E080A280B380D09059022091560288
:1014500030915702A501421B530BD11409F4CFC0A0
:10146000483C510508F09EC0811509F4C5C0909113
:101470005502918080915A02803108F065C099121E
:1014800026C0909154029E1122C0F11057C08F7057
:10149000806180935A021BDF84E592E03BDD8091FE
:1014A0005A02F8018683F12C8F2D2D960FB6F894F1
:1014B000DEBF0FBECDBFDF91CF911F910F91FF9087
:1014C000EF90DF90BF90AF909F908F900895F110B4
:1014D00035C040E0692D8E2D57DF40E0692D8E2DFF
:1014E00053DFF82E8111DFCF88859985ACDE292F57
:1014F00022952F70903450F49F70223078F091151F
:1015000091F0F8019681903170F4CECF2A5F2F7060
:10151000223070F0C801FEDCFD2CC6CF911519F009
:10152000811509F4C1CF805E883008F4BDCFF2CFB9
:10153000803F08F4B9CF815F8330F7CF80915A02A2
:10154000816080935A02AFCF991207C090915402E4
:101550009E1103C0F11409F473C0C80130DD811578
:1015600009F48CC0F11409F489C080915A028032C8
:1015700080F0209154023091550229833A83AB8246
:10158000BC82909158029D831E828F83CE0101966A
:10159000C1DC87E0F801A4E5B2E001900D928A95E4
:1015A000E1F74CCF90915A02903188F448855985E3
:1015B0006A857B858C859D850CDD84E592E0AADCBF
:1015C000F40187E011928A95E9F781DE6CCF8115ED
:1015D00099F02091550281812813BFCF8091540248
:1015E0008E11BBCFF110B9CF9683C80193DCF40103
:1015F00087E011928A95E9F7FF24F39455CF483C90
:10160000510508F03EC08115B9F3F114B9F190917C
:1016100055028181981329C0809154028E1125C0F2
:1016200080915A0280FD18C08031B0F08683807F9F
:10163000803F39F08681982F907F905F8F70892B43
:101640008683C80167DC87E0F801A4E5B2E0019079
:101650000D928A95E1F7F3CE87E0F801A4E5B2E0B8
:1016600001900D928A95E1F7C7CFC801A8DC8111DE
:1016700090CF80915A02816080935A02C8014ADC5F
:10168000BBCF488559856A857B858C859D85A1DC86
:1016900097CFAEE0B0E0EFE4FBE00C94EB2A2887B4
:1016A00039874A875B876C877D878E87CE0108964E
:1016B0008ADE6C85811599F0611539F028853985A8
:1016C0004A855B857D858E858EDC80911A0290919E
:1016D0001B0289133DC02E96E3E00C94072B87E094
:1016E0009E01285F3F4FF90127503109D901019030
:1016F0000D928A95E1F7611541F3A0911B028A2FA3
:1017000090E08395877090E0AC0120911A02241735
:10171000150691F097E09A9FD0011124A45EBD4F69
:101720009E012F5F3F4FF90101900D929A95E1F7CD
:1017300040931B02AFDDC9CF1CDC10921B0210923C
:101740001A02E4E5F2E087E011928A95E9F7BDCF4D
:1017500017E0189FC0011124845E9D4F34DE81156F
:1017600009F4B9CFE0911A021E9FF0011124E45E42
:10177000FD4F208131814281538164817581868151
:1017800032DC80911A0290911B020196877080933F
:101790001A029BCF8091830286958695869508953F
:1017A000809183028770089590918302977081E001
:1017B000911101C080E008958091AF020895909149
:1017C000AF02982B9093AF0208958095982F809147
:1017D000AF0289238093AF0208951092AF0208955B
:1017E0009091AE02982B9093AE0208958095982F19
:1017F0008091AE0289238093AE0208951092AE02CA
:1018000008950895FECF089590918402292F2823EA
:1018100029F08095892380938402F4CF0895089558
:10182000FECF089590918502292F2823281721F0B3
:10183000982B90938502F4CF089590918502292FDB
:10184000282329F08095892380938502E9CF089584
:1018500080918502811521F01092850280E0E0CF11
:101860000895CF93C091AF028091AE02C82B8091B2
:101870008502811529F0C82B0E9468218111E8DFBB
:101880008C2FCF910895CF93DF93C0910601D09113
:101890000701E7DF8883C0910601D091070148E086
:1018A00050E06BE772E0CE010E94732B892B59F058
:1018B00088E0FE01ABE7B2E001900D928A95E1F776
:1018C000CE010E94E920DF91CF910895CF93DF935D
:1018D000C0910401D0910501C4DF8983C091040146
:1018E000D091050140E250E06BE572E0CE010E942C
:1018F000732B892B59F080E2FE01ABE5B2E0019039
:101900000D928A95E1F7CE010E94F620DF91CF91EA
:1019100008950E94D120811529F08091410387FF0D
:1019200001C0D4CFB0CF0895FECF08959091420367
:1019300092FF0EC0982F990F990F990F962B9093A5
:10194000830298DB80918302869586958695ECCFFD
:1019500091CB1092830280E0E7CF90918302809533
:10196000892380938302282F277059F4891749F01F
:101970009091420392FF05C086958695869588DBF7
:10198000E8CF08959091420392FB222720F928176F
:1019900049F080FB92F99093420381E493E048D0B0
:1019A00082E0DBCF089580914203002482FF0394FC
:1019B000802DE8CF81E0E6CF80E0E4CF80E090E0CA
:1019C000BC011EC480E090E0BC0114D4F7CFA4E0B9
:1019D000B0E0EDEEFCE00C94EC2A67D372D31C82ED
:1019E000CE01049685D381E090E080931802109296
:1019F00019028AD3198284E18A83CE01019695D394
:101A00001B82CE010396A3D350D6DCDF2496E2E0FE
:101A10000C94082BDCCF08955AC3089547C308954A
:101A20005CC308956BC308956FC3089572C308958E
:101A30007CC3089581C308958AC308958EC3089511
:101A4000C0C30895E3C30895A6E0B0E0EAE2FDE074
:101A50000C94EA2A0E94A8238C018091B0029091F4
:101A6000B1028017910779F019821A820E94A82387
:101A7000BC0149815A8180E090E00E94700400938B
:101A8000B0021093B1022696E4E00C94062B0E945B
:101A9000B4236093B6027093B7028093B802909318
:101AA000B9026093B2027093B3028093B402909330
:101AB000B502089508950895FDCF08950895FEDFB5
:101AC000FBCF0895FECF08950895FEDFFBCF8DE094
:101AD00090E1ECD4F0DFF3CF81E0089581E0089548
:101AE000FBCF0895089508950895FCDFFCDFFCCF37
:101AF00095DF811101C08EDF8AEB92E091DF81E4F6
:101B000093E094DF0E94B21B8DDF84DA809116028D
:101B10009091170298CA0E949F2330D4E9DF0E9457
:101B2000CF200E944E040E94391B0E94CD180E94B3
:101B3000C817CBCFA6E0B0E0E0EAFDE00C94E02AC5
:101B4000CDDF81110FC080DF0E94D0200E94961847
:101B50000E948E1A0E944C1F0E9458042696EEE0A6
:101B60000C94FC2A1AD427E3822E23E0922E7401CF
:101B700010E0F701C080D180812F53D31F5F153053
:101B800009F450C022E0E20EF11CC816D90689F310
:101B90008091BA0281FD4ED3A3DF682E10E0812F21
:101BA00040D37C01F401A190B1904F018A159B05AF
:101BB00099F1A826BF2400E091E0C92ED12CC501DF
:101BC0008C219D21892B01F177247394C7018C21ED
:101BD0009D21892B09F4712C611489F0602F812FCC
:101BE0000E940A2381110BC009831A830E94A82333
:101BF000BC0149815A8181E0972D0E947004472DD4
:101C0000602F812F0E9421230F5FCC0CDD1C0F3031
:101C1000B1F6F401F292E2921F5F153009F0BFCFE6
:101C200036DF92CFC816D90609F0B2CF8CCF0F930A
:101C30001F93CF93DF93FDD0EC01D23508F050C055
:101C4000D03508F0C8C0C03ED10530F5CD3CD10537
:101C500008F09DC0C83AD10578F4C53AD10508F01E
:101C600093C0C130D105B1F1CE010497813A9105FD
:101C700088F1C0E0D0E02EC0CE01885A91094B9780
:101C8000C0F7C85AD0E0CC0FDD1FC759DE4F09900E
:101C9000D881C02DD4641EC0D034A8F4D03208F04E
:101CA000ADC0C83ED105B0F0CE0191509F3108F7CC
:101CB0008D2F62D1082F8C2F90E0BBD0D02FDF71F9
:101CC000C82FD92B07C08C2F90E0B3D0DF70C82F5E
:101CD000D92BD06ACE01DF91CF911F910F9108953A
:101CE000C03882E5D807B8F5C03682E5D80708F0D5
:101CF00056C0C03482E5D807C8F4C03282E5D807A0
:101D000008F047C08C2F8695869520E2829FC001FF
:101D10001124C37021E030E002C0220F331FCA95A6
:101D2000E2F7E901C82BD92BDD68D4CF8C2F86953B
:101D30008695877020E2829FC0011124C37021E044
:101D400030E002C0220F331FCA95E2F7E901C82B29
:101D5000D92BDC68BFCFC03C82E5D80750F48C2F6C
:101D60008F71C03AD24580F5982F84EF906AEC01CC
:101D7000B1CFCE01805C9245809708F07ACFDC2FFE
:101D8000DF71C0EFD06AA6CFA497D064A3CFD0658F
:101D9000A1CF8C2F8F71D82FC1EFD06A9BCF8C2F02
:101DA00086958695877020E2829FC0011124C370BA
:101DB00021E030E002C0220F331FCA95E2F7E901AB
:101DC000C82BD92BDA6886CFD7D0982F80E09F71A7
:101DD000EC01D0627FCF8C2F8F71CED053E0CC0F2F
:101DE000DD1F5A95E1F7DF70282F84FF04C090E1D2
:101DF000899F90011124C22FD0696CCF8D2F8F71D4
:101E0000BBD0082F8C2F90E014D0302F3F71282F9B
:101E1000392B3062E9015ECF462F753028F46F30E0
:101E200018F4672F0C94470380E090E00895F4DFE6
:101E3000FECE803E9105D1F1C8F48133910509F4BD
:101E400081C048F48932910509F471C08A32910544
:101E500009F47FC0089589339105E1F08238910536
:101E6000C9F08533910509F45DC00895843E91055C
:101E7000D1F148F4823E910531F1833E910541F163
:101E800081EE90E00895863E9105C1F1873E91056F
:101E9000F1F1089520914103237009F064C020916D
:101EA000420323FF14C089E290E00895209141038A
:101EB00020FD45C03091420330FF09C024FD24C0FD
:101EC00083EE90E008952091410322FDF7CF08951D
:101ED0002091410322FD44C03091420330FD43C0B4
:101EE00024FFF5CF11C02091420321FFF0CF809154
:101EF000410384FD09C087EE90E0089520914103DD
:101F000023FFE5CF24FFF7CF80E090E008952091F4
:101F1000410323FD2BC03091420331FFE1CF84EE1A
:101F200090E008952091410325FFD1CFBCCF2091AF
:101F3000410325FD1EC02091420323FFC8CF89E342
:101F400090E008952091410326FFC1CF8AE290E0FE
:101F500008952091410326FFBACF81E390E00895D0
:101F600082EE90E0089580EE90E0089586EE90E095
:101F7000089585E390E008959091410392FF10C089
:101F800041E0282F2471243009F040E031E0282F6F
:101F90002871283009F030E0431711F02CE0822737
:101FA00093FF10C041E0282F2471243109F040E054
:101FB00031E0282F2871283109F030E0431711F063
:101FC0002CE082273091420330FF10C051E0282FCF
:101FD0002171213009F050E041E0282F287128308C
:101FE00009F040E0541711F029E0822731FF10C0BA
:101FF00041E0282F2171213109F040E031E0282F04
:102000002871283109F030E0431711F029E08227C8
:1020100094FF02C083FD877E089580E00895CF93EA
:102020009C01205E3245C1E02032310538F4FB01CD
:10203000C581C11103C08F710E9405048C2FCF91FF
:1020400008959C01FB018581811599F02B359CE752
:10205000390769F02C359CE7390721F02A353C47D0
:1020600021F00895A0DC80E00895A4DCFCCFA4DC7E
:10207000FACF81E008959C01FB018581811599F0DB
:1020800021309CE7390761F023309CE7390739F0AC
:1020900021153C4749F40E94240480E00895BCDCEB
:1020A0000E942804FACF81E00895089580E090E02E
:1020B0000E948D2B9C0181E0233E3E4F09F080E081
:1020C000089563EE7EEF80E090E00C94AC2B6FEF10
:1020D0007FEF80E090E00C94AC2BCF93DF93EC018A
:1020E00082E090E00E94802B8883DF91CF91089559
:1020F000FC01608182E090E00C94922B83E090E000
:102100000E94802B90E00895682F83E090E00C946B
:10211000922BCF93DF93EC0184E090E00E948D2B13
:1021200088839983DF91CF910895FC01608171814B
:1021300084E090E00C94AC2BCF93DF93EC0186E02D
:1021400090E00E94802B8883DF91CF910895FC015D
:10215000608186E090E00C94922B8F929F92AF92D8
:10216000BF92CF92DF92EF92FF920F93CF93DF93C4
:10217000EC0188E090E00E94882B4B015C016883B1
:1021800099828A83BB821C821D821E821F8283E207
:1021900090E00E94802B9401A50188823983AA8255
:1021A0005B838C831D821E821F82DF91CF910F91F2
:1021B000FF90EF90DF90CF90BF90AF909F908F9067
:1021C00008950F93CF93DF93EC01488159816A8181
:1021D0007B8188E090E00E94A42B6C81262F60E038
:1021E00070E0CB01622F83E20E94922BDF91CF91AE
:1021F0000F910895AB01BC018FE090E00C94A42BEB
:10220000AB01BC0183E190E00C94A42B682F8EE01D
:1022100090E00C94922B0895FECF08950895FECF80
:102220000895E82FF0E0EE0FFF1FE35BFC4F808185
:1022300091810895089580EA8A95F1F7089500C084
:102240000895F9CF0895F894E82FE295EF70F0E043
:1022500041A18F7021E001C0220F8A95EAF7922FE9
:102260009095942391A392A1822F892B82A3789495
:102270000895CF93DF93CEEAD1E089918F3F09F0A3
:10228000E2DF81E0C33BD807C1F7CFE9D1E0899114
:102290008F3F09F0D8DF81E0CE3AD807C1F7DF9150
:1022A000CF910895AF92BF92DF92EF92FF920F937A
:1022B0001F93CF93DF935C01D62EC62FD0E08E0103
:1022C00002551E4FF80180818F3F09F44BC0F894EE
:1022D000E82FE295EF70F0E091A18F7021E001C04E
:1022E000220F8A95EAF7892F822B81A382A120955C
:1022F000282322A37894A3DFEFE9F1E021E030E086
:10230000E12CF12C41914F3F79F0A42FA295AF70B1
:10231000A05EB0E08C9190E04F7002C095958795DB
:102320004A95E2F780FF28C080E090E0E82AF92A89
:10233000220F331F81E0EE3AF80721F7F801808180
:102340008F3F09F080DF61E0E114F10409F460E0FF
:102350008D2D77DFCC0FDD1FC5018C0F9D1FEC018C
:10236000E882F982DF91CF911F910F91FF90EF905A
:10237000DF90BF90AF900895C901D8CF7ADFEDE428
:10238000F3E08AE011928A95E9F7E3E4F3E08AE06A
:1023900011928A95E9F73CD03FCFAAE0B0E0E3ED97
:1023A000F1E10C94E92AFE013196DF018AE01D92E9
:1023B0008A95E9F710E00E2FFF2E612F802F9F2DB9
:1023C00071DF812F8F5F182F8530B9F74AE050E019
:1023D000602F7F2D83E493E00E94732B41E0892BD3
:1023E00069F440E06DE473E083E493E012D0182FC9
:1023F00016DF812F2A96E5E00C94052B8AE0E02F6A
:10240000FF2DA3E4B3E001900D928A95E1F7EACFA6
:102410000895EF92FF920F931F93CF93DF938C0158
:102420007B01C42F411579F081E08093BD020E94A9
:10243000A8238093BB029093BC0280E0CDB7DEB7A7
:10244000E6E00C94042BD091BD02D115B1F380913C
:10245000BB029091BC020E943923059770F34AE0B9
:1024600050E0B801C7010E94732B892B41F08AE02C
:10247000F801D70101900D928A95E1F7CD2F1092C6
:10248000BD028C2FDBCF56CB08950E9442230E94C1
:1024900039251DDB0E9451253EDB0E945A250E94F2
:1024A0005D25F1DF0E94732520DBF9CF8093E601E3
:1024B0009093E7010895CF93DF93EC01FB018581B1
:1024C000811104C081E0DF91CF91089575D98272A6
:1024D000FE01E052F847EB30F105A0F7E051F44D72
:1024E0000C94C62A4DD580E0EECF811521F03CD565
:1024F000FACF8115E1F32CD5F6CF811521F017D253
:10250000F2CF8115E1F309D2EECF811521F029D266
:10251000EACF8115E1F318D2E6CF811521F03BD245
:10252000E2CF8115E1F32AD2DECF811521F0E8D088
:10253000DACF8115E1F3D5D0D6CFA0E0B0E0E3EA61
:10254000F2E10C94E52A062FB72EE82F71110EC088
:10255000411521F0F0E0EE58FC4FE4916E2F7E2FF4
:102560008E2FCDB7DEB7E9E00C94012B411521F099
:10257000F0E0EE58FC4FE49186E0089FE001112462
:102580002FEF30E0CE01B9010E947D2AAB01C801D6
:10259000880F991FF5E5F49FB001F59F700D112488
:1025A000861B682F660F680FC9018B199109E89F78
:1025B000D001E99FB00D11248B2FB69E600111242C
:1025C000CD2CD12C89010C191D096801E09F7001E7
:1025D000E19FF00C11244330510551F18901061B94
:1025E0001109B09E6001B19ED00C1124CD2CD12CCC
:1025F0002C193D09E29F8001E39F100D1124712FDA
:10260000CC3FD34050F441305105B1F04230510538
:1026100061F47E2FEB2F812F08C04430510579F0F3
:102620004630510511F07B2F8F2D6E2FE82F98CF5C
:102630007F2D8E2FEB2FF9CF7E2FEF2DF6CF8E2F04
:10264000E12F7B2FF2CF41E078CF0895FCCF0895A2
:1026500090910B01291B922FE091E001F091E10193
:10266000242F462F682F892F90E009950895CF9346
:10267000DF93762FE901682F842FE8DF962F672FED
:102680009E01482F892FE4DFDF91CF91089580913B
:102690005703843028F4837084608093570308952F
:1026A0008C3AE8F38370886AF8CF85E0809357030B
:1026B000109258038FEF8093590380935A0310921E
:1026C0005B0387E593E0BCC990915B03933018F4FA
:1026D0009F5F90935B03811519F087E593E0B0C984
:1026E000089581E0F1CF90915B03911519F091501D
:1026F00090935B03811519F087E593E0A1C90895D4
:1027000081E0F1CF0F931F93CF938091570380FF08
:1027100009C0E091E401F091E5010995CF911F9185
:102720000F910895C0910D018091E0019091E10118
:102730008C0180910E01C81760F780910B019C2FCE
:10274000981B20E040E060E0892F90E0F8010995B7
:10275000CF5FEFCFEF92FF920F931F93CF93DF9353
:10276000D82F162F042F8091570380FF0CC0C091E3
:102770000D018091E0019091E1017C0180910E01B9
:10278000C81730F0BFDFCDB7DEB7E6E00C94042BFE
:1027900080910B019C2F981B202F412F6D2F892F8B
:1027A00090E0F7010995CF5FE9CF762F909157031D
:1027B00090FF08C0682F842F49DF962F672F482F7E
:1027C000892FC8CF0895CF93DF93EC01EC81F0E01F
:1027D000E351FE4F4491E7E5F3E062818181E5DF5B
:1027E0008C818F5F8C83DF91CF910895CF93DF939E
:1027F000EC01E7E5F3E0438162818C81D6DF8C81D7
:102800008F5F8C83DF91CF910895CF93DF93EC019D
:1028100020915A039C81892F817090FD822F692F0E
:10282000627091FD622F492F447092FD422F92DF1A
:102830008C81019687708C83DF91CF910895A0E001
:10284000B0E0E5E2F4E10C94E72AD82FE62EF42E6E
:10285000D22E9091570390FF21C0092F069506951F
:10286000E02FF0E0ED54FE4F8081809303039C7FC6
:102870009430C9F46D2F7E2D842FE8DE962F672FBC
:10288000482F892F67DFD0935803E0925903F092C5
:102890005A03D11419F087E593E0D2D8CDB7DEB74B
:1028A000E7E00C94032B823019F4F0905A03EBCF3D
:1028B000863019F4D0915803E6CF8930D9F38931A5
:1028C00011F70951E02FE695F0E0E351FD4FC49177
:1028D00010E060910F01161710F014DFD4CF1C9F89
:1028E000C001112470E00E947D2A862F8D0F00FF09
:1028F00002C08D2F861B20910D01210F3327331F1E
:102900004F2D6E2DB4DE1F5FE4CFE7E5F3E0282FF7
:10291000438162818181845F92CF81E0F6CFE7E5D8
:10292000F3E0282F4381628181818C5088CF81E040
:10293000F6CFE7E5F3E0628129E1620F08F46FEF7B
:10294000282F438181817BCF81E0F3CFE7E5F3E05E
:10295000628129E1621B08F460E0282F43818181B4
:102960006ECF81E0F3CFE7E5F3E043812CE0420F47
:1029700008F44FEF282F6281818161CF81E0F3CF8E
:10298000E7E5F3E043812CE0421B08F440E0282F08
:102990006281818154CF81E0F3CF20E050CF0F934B
:1029A0001F93CF938C01C0E060910F01C61768F0B0
:1029B000A9DEF8018481928190FF1DC08F5FF8012C
:1029C0008483CF911F910F91089520910D012C0FB9
:1029D0003327331F70E08FEF90E00E94912AF801B7
:1029E000848140915A03C69F800D11246091590340
:1029F0003EDECF5FD9CF8150E2CFAF92BF92DF9260
:102A0000EF92FF920F931F93CF93DF93FC0182818C
:102A1000D1E080FDDFEFC0E08091E0019091E10125
:102A20005C0180910F01C817B8F06CDE8091BF0285
:102A3000D13009F050C0811102C080910F01815046
:102A40008093BF02DF91CF911F910F91FF90EF9084
:102A5000DF90BF90AF90089580910D0190910B0190
:102A6000891B8C0F20E040E060E090E0F5010995C3
:102A700004E010E0D12CEC2EF12C8091BF028D0DE2
:102A80008D301CF16CE00E94702A892F082E001CEA
:102A900000088E150F0499F480910D019701280FFD
:102AA000311D40915A030403A00111245595479507
:102AB000559547956091590380915803D8DDDD0EF7
:102AC00001501040D1F6CF5FACCF87FFDFCF9091A0
:102AD0000F01890FDBCF90E0019660910F0170E04C
:102AE0000E94912AADCF0F931F93CF93C0910D01F8
:102AF0008091E0019091E1018C0180910E01C81755
:102B000050F1C0E08091E0019091E1018C01609171
:102B10000F01C61768F1F6DD809109019091BE02A0
:102B2000980F9093BE0220910A01280F20930A016A
:102B3000121654F420910F012150330B092E001C62
:102B40000008921703061CF0819580930901CF912C
:102B50001F910F91089580910B019C2F981B20E0ED
:102B600040E060E0892F90E0F8010995CF5FC5CF84
:102B7000EC2FF0E070E0CF010E94912A20910D012E
:102B8000820F9091BE02092E001C0008E917F00583
:102B90009CF090910A01092E001C00089E170F0658
:102BA0005CF0282F30E040915A03609159038091E6
:102BB00058035DDDCF5FABCF90910B01891B20E007
:102BC00040E060E090E0F8010995F4CFA0E0B0E0CB
:102BD000ECEEF5E10C94E42AEC01FC812F2F30E0BF
:102BE000D9010E94462A9B01AC010E94D22A7B0196
:102BF0008C0180E290E08F1B9109FC01A5E5970113
:102C0000A8010E94D22A5B016C019F01DF010E9492
:102C1000402A9B010E94CC2A9B01AC012E0D3F1D36
:102C2000401F511FB501C6010E94A42A022F30E0A7
:102C30000A3220F5A901440F551F420F531F559525
:102C40004795142F1095F12C85E5801BE82E809177
:102C50000F01F81600F156DD9C8181E0911519F005
:102C6000903219F48FEF8093080180910801890F49
:102C70008C83CDB7DEB7EAE00C94002B85E590E0BD
:102C8000821B930BAC01440F551F480F591FBAF616
:102C90004F5F5F4FD4CF8E2DF1FC802F20910D011F
:102CA0002F0D3327331F412F60915903E0DCF3943C
:102CB000CECF0F931F93CF93DF938C01C0E0D0E072
:102CC00090910F01C917D1055CF01CDDF8018481DA
:102CD000019681708483DF91CF911F910F910895A8
:102CE000F801448180910D019E01280F311D6091F2
:102CF0005903809158039695C917D1053CF44115A5
:102D000039F040915A03B3DC2196DACF4115C9F36B
:102D100040E0F9CFA0E0B0E0E0E9F6E10C94E02A71
:102D2000FC018281882E948081E08483EDEEF1E0C5
:102D3000A490ECE6F2E0E491C0915A03C695C15824
:102D4000D0E0CC0FDD1FED2EF12CB12C05E01FEFF4
:102D5000EA198E2F90E03C0180910F01B81630F0F7
:102D6000D1DCCDB7DEB7EEE00C94FC2ACB2CD12C15
:102D7000882D833058F40B9DF0011124E054FD4F51
:102D800080915803808380915903818391101BC0E7
:102D90000C9DF0010D9DF00D1124E054FD4F1382A8
:102DA000128280910D019601280F311D0C9DF001BA
:102DB0000D9DF00D1124E054FD4F42816181808111
:102DC00056DCB394C9CF0C9DE0010D9DD00D1124AC
:102DD000C054DD4F8B818115E1F081508B83189FAA
:102DE000C00111246C8170E00E947D2A70E0FB011B
:102DF000E351FE4F84918A19189FC0011124B30139
:102E00000E947D2A80915A03689FB00111247A8321
:102E1000C8CF0E945A2B6FEF70E00E94912A8E1546
:102E20009F050CF0BECF882D833090F00E945A2B66
:102E30006FEF70E00E94912A88830E945A2B2091A4
:102E400059032695622F70E00E94912A280F29834A
:102E50000C9DF0010D9DF00D1124E054FD4F1282E8
:102E600080915A03893C58F088EC0C9DF0010D9D2F
:102E7000F00D1124E054FD4F8483838392CF84317D
:102E8000A0F784E1F2CF809157038E7F80935703A0
:102E900087E593E00E94200D1092040333CC6091EB
:102EA00057036695669570E04BE050E080E191E055
:102EB0000E94662B892B19F481E0809304030E9401
:102EC000A8238093FC029093FD02089590915703EC
:102ED00090FF2CC0811559F18B3258F58F73880FF4
:102EE000880F909157039370892B80935703611536
:102EF00021F087E593E00E94200D609157036695CD
:102F0000669570E04BE050E080E191E00E94662B16
:102F1000892B89F01092040381E08093FF02409195
:102F20005A03609159038091580337CD089581E089
:102F3000D6CF8AE2D4CFB3DFEFCF682F909157037B
:102F400096959695892F8F5F8B3208F081E0BECFE2
:102F500081E0F3CF682F9091570396959695892F2E
:102F6000815009F48AE2B2CF81E0F4CF61E0AECFC4
:102F70008091570381608093570386958695F6CF9D
:102F80008091570380FF01C07ECFF2CF60E09ECFDB
:102F90008091020381111FC087E593E00E941E0DFE
:102FA00080915703843028F480DB87E593E00E940A
:102FB0001E0D6DDB10920403E091DE01F091DF0144
:102FC00009958091570380FF03C086958695DEDFC3
:102FD00081E08093020308950F931F93CF93DF93B3
:102FE00080910403811509F441C080910303E091AD
:102FF0005703E695E695E81BE093FE02853109F458
:103000008BC008F044C0893009F47CC0A0F5823040
:1030100009F466C0863009F46CC0C0EDD7E005E263
:1030200013E18091FF02811561F01092FF020E946E
:10303000A8238093FC029093FD021092000310924B
:1030400001030E94A8232091FC023091FD02821B03
:10305000930B8F3F9F4750F42C0F3D1F2093FC0292
:103060003093FD028CEF92E0F8010995DF91CF914A
:103070001F910F9108958F3081F6E695F0E0E052B0
:10308000FE4FE491CE2FD0E00DEF14E1CACFC4EF94
:10309000D1E009E516E1843221F288F4C8E2D0E0FB
:1030A00006EE15E1883109F4BCCF833209F0B5CFC3
:1030B000EBEDF1E0C591D59105E014E1B2CF853299
:1030C00009F0ABCF8E2F63E00E94642AE92FF0E075
:1030D000E852FE4FE491CE2FD0E00AE816E1A1CFEE
:1030E000F0E0E751FE4FE491CE2FD0E003EE13E184
:1030F00098CFF0E0EA51FE4FE491CE2FD0E006EFFA
:1031000013E18FCFE695F0E0ED51FE4FE491CE2F25
:10311000D0E00FEC14E185CFF0E0E352FE4FE491F4
:10312000CE2FD0E003E715E17CCF089555CF089569
:1031300085E380935F038FE593E00C941C0D8091F1
:103140005F03869586958695089580915F0381FD3E
:1031500008C0826080935F038FE593E00E941C0D9E
:10316000DEC1089580915F0381FF08C08D7F809349
:103170005F038FE593E00E941C0DDBC108958091F1
:103180005F0381FF01C0EECFE0CF80915F038695A2
:103190008170089580911B0108958FE593E00E944E
:1031A0001A0D80915F0382FFC3DF80915F03883334
:1031B00020F08770806380935F0390915F03892F75
:1031C000817090FF04C0892F86958695869567C18A
:1031D00090915F03892F869586958695903340F46C
:1031E0008F5F880F880F880F9770892B80935F03FC
:1031F00080915F03816080935F038FE593E00E947D
:103200001C0D80915F0386958695869548C18091B7
:103210005F03883088F0885080935F0391E08830A6
:1032200008F490E080915F0390FB80F980935F0346
:103230008FE593E00E941C0D80915F038695869533
:1032400086952DC180915F0380FD12C081608093BF
:103250005F03813019F489E080935F038FE593E089
:103260000E941C0D80915F0386958695869517C1F7
:10327000089580915F0380FF09C08E7F80935F0374
:103280008FE593E00E941C0D80E009C108958091B4
:103290005F0380FF01C0EDCFD5CF80915F0386959E
:1032A000869586958F5F8F71873008F080E0880F54
:1032B000880F880F90915F039770892B80935F032D
:1032C00091E0883008F490E080915F0390FB80F9F2
:1032D00080935F038FE593E00E941C0D80915F0354
:1032E000869586958695DBC0873008F086E020912C
:1032F0005F032770982F990F990F990F922B909336
:103300005F0321E0983008F420E090915F0320FBF8
:1033100090F990935F03C3C0E7DF8FE593E00C94CF
:103320001C0DFC01DB0115968C918115C1F0F8573D
:10333000E730F105A8F4E550F44D0C94C62A86E078
:10334000EBDF80E0089580E0FBCF61DFFACF40DF64
:10335000F8CF9DDFF6CFA1DFF4CF11DFF2CF81E010
:103360000895859A8D9A08958D9808958D9A089557
:103370000F931F93CF93DF93EC0180918600909180
:1033800087006CE070E00E947D2A6C177D0758F082
:10339000CE0169E070E00E947D2ACB01DF91CF91E0
:1033A0001F910F9108958091860090918700209140
:1033B0008600309187008901209186003091870036
:1033C00066E070E00E947D2AE0E0F0E0C60FD71FC3
:1033D000E11DF11D85E0CC0FDD1FEE1FFF1F8A955B
:1033E000D1F7C80166E070E00E947D2A40E050E01D
:1033F000260F371F411D511DBE01CF010E94A42A77
:10340000E901FA0180918600909187008C01B90151
:10341000CA010E94552A9B01AC01D8010E94D22A00
:103420009B01AC01BE01CF010E94552A770FAC0170
:1034300077276627441F551F661F8091860090914D
:103440008700841795071606170620F4409186001A
:1034500050918700CA01A2CF1F920F920FB60F9210
:1034600011242F933F934F935F936F937F938F9389
:103470009F93AF93BF93EF93FF9378DFFF91EF910B
:10348000BF91AF919F918F917F916F915F914F917C
:103490003F912F910F900FBE0F901F901895CF93D3
:1034A000C82F873048F5811128C0809188009091FD
:1034B0008900892B51F080916F008D7F80936F0080
:1034C00080916F008E7F80936F0050DF2091860087
:1034D00030918700AC2FB0E00E94462A26E030E011
:1034E00040E050E00E94A42AC90142DF9093890085
:1034F00080938800CF910895C6E0809188009091D4
:103500008900892B19F780916F00826080936F008A
:1035100080916F00816080936F00D8CF08951092E2
:103520000603109207031092080381E080930503BD
:1035300008951092050303DEB2CF0F931F93CF932C
:10354000DF9380911C01823041F08F5F80931C01DA
:10355000DF91CF911F910F91089581E080931C011D
:1035600019DE182FC0910603D0910703219612DEB1
:1035700028E7289FB0011124CE010E947D2A809364
:10358000060390930703219FB0011124660F672F54
:10359000661F770B71950E947D2A67FD6FE780910A
:1035A0000803823051F5603411F410920503E62FC0
:1035B000F0E0EE50FD4FC49180918600909187001D
:1035C0008C01BDDDD82F2C2F30E0D8010E94462A77
:1035D0002FEF40E050E00E94A42AC90166E070E0AD
:1035E0000E947D2AD69FC001D79F900D1124C0DE76
:1035F0009093890080938800ABCF8130C1F66F37FC
:10360000D3CF1F920F920FB60F9211242F933F9397
:103610004F935F936F937F938F939F93AF93BF93DA
:10362000EF93FF9380910503811187DF209188003C
:103630003091890080918600909187006AEF70E058
:103640000E947D2A6B5F7F4F6217730708F48CDE40
:10365000FF91EF91BF91AF919F918F917F916F916A
:103660005F914F913F912F910F900FBE0F901F9040
:10367000189577DE82E08093800089E18093810055
:103680008FEF9FEF909387008093860086DD7DDD2E
:10369000811145CF0895869A0895FC01EE0FFF1F12
:1036A000E80FF91FE05AFC4F61834083228308959D
:1036B000FF920F931F93CF93DF93182F062FF42EB3
:1036C000C0E0D0E02F2D402F612FCE01E6DF219604
:1036D000CC30D105B9F7CDB7DEB7E5E00C94052BBA
:1036E00031B33F7B21B320644FB7F89480E693E079
:1036F000FC010196508168E021BB000000C057FF2B
:1037000031BB550F000000C000C000C031BB00C07D
:103710006A9591F753E08438950751F74FBF8FE5CD
:1037200094E00197F1F700C0000008950C940C0D8F
:10373000089580E00E941111817008950E94CD11BA
:103740008FEF96E721E0815090402040E1F700C0E4
:1037500000000E94CD11EDDF811519F0E7DF0C9418
:10376000E4230895EBCF0895E82FE550EF3308F0F8
:1037700065C0F0E0EE5FF34D0C94C62A0E940A0D7E
:1037800081E008958091BA02807F8093BA0281E03F
:1037900080930C03F5CF0E942404F2CF9091BA02DB
:1037A000892F8E7F90FF81608093BA0280FDE8CFE1
:1037B000817F8093BA02E4CF9091BA02892F8D7FE6
:1037C00091FF82608093BA0281FFDACF8091BA02C2
:1037D0008160EFCF9091BA02892F8B7F92FF846036
:1037E0008093BA0282FDF2CFCBCF9091BA02892F9B
:1037F000877F93FF88608093BA0283FDE7CFC0CFB5
:103800000E94B90790914103892F97FB87F980584F
:1038100080934103B5CF81E090E00E940A080E94A6
:10382000B907AECF895321E030E002C0220F331F29
:103830008A95E2F7C901F1CF8D51F5CF80E0089567
:1038400080E0089580E00895CF93C82F80910C0305
:10385000813089F0823081F18111A6C00E94DC0B99
:10386000823209F0A3C08C2FEBDF811102C08C2FB4
:103870007BDFCF9108950E94DC0B8232A1F38C2F65
:10388000E1DF811519F081E08170F3CFC43169F077
:1038900030F4CB30C1F3C03159F080E0F5CFC932FC
:1038A00021F081E0C833C9F7EFCF10920C03F5CFB8
:1038B00082E080930C03E7CFCF3409F46BC068F447
:1038C000C83248F4CE3178F5C73009F450C0C4315D
:1038D000F9F081E0CECFC932FBCFC13509F45CC02D
:1038E000C23509F45BC086EFC03599F7E091090352
:1038F000F0910A03309769F32081982F990F990B63
:10390000820F911D91300CF44BC08FEF8083E1CF7B
:1039100080910B038115E9F210920B0310920903B9
:1039200010920A03D6CFCD51C0930B03C430C9F017
:1039300078F483E291E0C23031F084E291E0C33068
:1039400011F482E291E08093090390930A03C1CFBE
:10395000C53051F08DE191E0C630A9F310920B0310
:10396000B8CF81E291E0EFCF8EE191E0ECCF81E042
:103970008093240184E1809323018AE080932201D3
:103980008EE18093210188E080931E0188E280937C
:103990001D019FCF8AE0AACF8FEFA8CF81E0A6CFED
:1039A00097FFB4CF108295CF10920C0380E061CFC7
:1039B000CF93DF93EB0186319C4709F50E94DC0B26
:1039C0009D81911599F08A7A91E0811101C090E072
:1039D00090930D03811541F085E326D50E94890C53
:1039E00080E0DF91CF91089589E2F7CF80910D03B8
:1039F000811519F085E32FD5F1CF89E2FCCF81E065
:103A0000F0CFCF93DF93EC01FB018581811509F4A1
:103A1000CBC09E0130572332310508F0ABC081E4A2
:103A200093E00E94160DFE01E150F047E232F105ED
:103A300020F4EF5BF34D0C94C62A80914103816022
:103A40008093410390C08091420388608093420339
:103A50008AC0809141038260F3CF809141038460EA
:103A6000EFCF809141038860EBCF8091420381606A
:103A7000EDCF809142038260E9CF80914103806164
:103A8000DFCF809141038062DBCF8091410380646E
:103A9000D7CF0E94B907809141038068D1CF809130
:103AA00041038C60CDCF809142038360CFCF809162
:103AB00041038E7FC5CF80914203877FC7CF80911E
:103AC00041038D7FBDCF809141038B7FB9CF809122
:103AD0004103877FB5CF809142038E7FB7CF80911E
:103AE00042038D7FB3CF809141038F7EA9CF809118
:103AF00041038F7DA5CF809141038F7BA1CF0E9491
:103B0000B907809141038F779BCF80914103837FD9
:103B100097CF809142038C7F99CF90914103892F59
:103B20008B7F92FF8460877F92FF886089CF80912E
:103B30004203982F909590FB80F990FB81F986CFF6
:103B400090914103892F8F7B96FF806479CF0E94EB
:103B5000B90790914103892F97FB87F9805870CF5F
:103B600081E00E94220D81E493E00E94180D0E94E2
:103B7000B90780E0DF91CF91089580E0F2CF909176
:103B80004103892F8F7E94FF80615ACF909141032A
:103B9000892F8E7F90FF816053CF90914203892FB0
:103BA000877F93FF886052CF81E0E4CF382F25EBE9
:103BB0003203C001112497FF04C080589109892F56
:103BC000089580589F4FFBCF8091140380FF0DC054
:103BD0006091220170E0660F771F6038710588F5EB
:103BE0006115710581F1862F089581FF07C06091ED
:103BF000220184E0689FB0011124EFCF82FF04C04E
:103C00006091220188E0F6CF909113039115B9F0ED
:103C10006091210180912201961728F098E0899FF8
:103C2000B0011124DACF899FC001112423E0880F4D
:103C3000991F2A95E1F770E00E94912ACECF68E0A3
:103C4000D2CF8FE7089581E008958091140380FF1B
:103C50000CC060911E0170E075956795759567952C
:103C60006115710541F1862F089581FF06C06091AD
:103C70001E0170E075956795F3CF60911E0182FD7E
:103C80000BC0909112039115A1F060911D018091DC
:103C90001E01961738F0682F70E06038710500F348
:103CA0008FE70895899FC001112470E00E94912A36
:103CB000F4CF61E0D8CF81E00895E82FED5CE331E7
:103CC00098F5F0E0ED59F34D0C94C62A7DDF81950F
:103CD00080931803089578DFFBCF76DF819580937A
:103CE0001703089571DFFBCFB0DF809319030895A8
:103CF000ACDF8195FACFA9DF819580931A030895EF
:103D0000A4DFFBCF815D990B21E001C0220F8A95D2
:103D1000EAF780911603822B809316030895809111
:103D200014038160809314030895809114038260CA
:103D3000F9CF809114038460F5CF409117038D3C37
:103D400059F48091180387FF0DC010921803411594
:103D500059F41092130308C08E3C81F4809118032B
:103D600018169CF3411581F08091190390911A0364
:103D7000892B09F056C01092120308958F3C41F42C
:103D800047FFF0CF10921703809118038115E0CF01
:103D9000803D19F41416B4F3E5CF90911903893DD1
:103DA00029F41916FCF610921903DCCF8A3D19F498
:103DB00097FFD8CFF8CF90911A038B3D29F497FF46
:103DC000D1CF10921A03CECF8C3D19F41916CCF333
:103DD000C9CF982F915D983078F4815D990B21E0DF
:103DE00001C0220F8A95EAF7822F809590911603E1
:103DF000892380931603B6CF8D3D31F4809114034F
:103E00008E7F80931403AECF8E3D21F480911403F6
:103E10008D7FF7CF8F3D09F0A5CF809114038B7F65
:103E2000F0CF089595D49C019091170380911803C9
:103E3000982B21F0209310033093110390911903D4
:103E400080911A03982B21F020930E0330930F03D7
:103E500085E193E0DDC1E5E1F3E086E011928A952A
:103E6000E9F71092130310921203109214030895AD
:103E7000FC01828181110EC0838181110BC084817C
:103E8000811108C091E08581811101C090E0892FE6
:103E90008170089581E0FCCFA6E0B0E0E2E5FFE1AB
:103EA0000C94E92A86E0E5E1F3E09E012F5F3F4FA5
:103EB000D90101900D928A95E1F7109217031092A3
:103EC00018031092190310921A038B819C81892B7D
:103ED000022FF32E811581F0809110039091110330
:103EE000C8D3AC01909113039115A1F180912301E6
:103EF0008417150608F43BC08D819E81892B89F0BB
:103F000080910E0390910F03B4D3AC0190911203F2
:103F1000911509F45AC080911F018417150608F401
:103F200062C0602F7F2D85E193E0C4D2811104C06F
:103F300085E193E09DDF811175DF86E0E02FFF2DA5
:103F4000A5E1B3E001900D928A95E1F72696E5E0B0
:103F50000C94052B209124018AE0289F90011124C4
:103F60002417350748F69F5F9093130302C09F3FC5
:103F7000D1F71B81111551F027DE91E011160CF0DD
:103F80009FEF899F802D1124809317031C811115A9
:103F900051F01ADE91E011160CF09FEF899F802DF1
:103FA00011248093180380911703811509F4A4CF7D
:103FB00010911803111509F49FCFF8DD80931703B2
:103FC000812FF4DD8093180397CF209120018AE0A0
:103FD000289F900111242417350708F0A2CF9F5F76
:103FE0009093120302C09F3FD1F71D81111551F02C
:103FF0002CDE91E011160CF09FEF899F802D11248B
:10400000809319038E81182F811551F01EDE91E0E7
:1040100011160CF09FEF899F802D112480931A03B5
:1040200080911903811509F47CCF90911A03192FFF
:10403000911509F476CFBADD80931903812FB6DD8F
:1040400080931A036ECF0F931F93CF93DF93C42FE8
:10405000D22FFC0185818115C9F040931D0378D3CF
:1040600080931B0390931C038C2F805E883048F450
:1040700081E0C1FD84E0C0FD880FC2FD82950E94F1
:10408000A905DF91CF911F910F91089510911D0304
:10409000141333C080911B0390911C03EAD2883C17
:1040A000910558F5CD2FC05E1D17C1F0812F805EA0
:1040B000883048F481E011FD84E010FD880F12FD86
:1040C00082950E94AE05C83048F481E0D1FD84E0BD
:1040D000D0FD880FD2FD82950E94A905802F0E94F5
:1040E000A20581E0D1FD84E0D0FD880FD2FD82954C
:1040F000C83038F60E94AE05C4CF8C2F805E883061
:1041000008F0BFCF81E0C1FD84E0C0FD880FC2FD93
:104110008295F0CF0F93FC01CB01E851FC47E730CB
:10412000F10588F5EA58F34D0C94C62A06E221EE13
:1041300041EE6AE17CE787DF80E00F91089507E2B6
:1041400025EE45EE6BE17CE7F6CF06E221EE40EE90
:1041500068E17CE7F0CF07E225EE44EE69E17CE719
:10416000EACF06E221EE42EE6CE17CE7E4CF07E223
:1041700025EE46EE6DE17CE7DECF08E221E045EE7C
:104180006EE17CE7D8CFFB018581811110921D0380
:1041900081E0D3CF80932203909323030895089561
:1041A0000895EFD1982F81E0913009F080E00895D3
:1041B000E0912203F0912303309739F00190F081D0
:1041C000E02D309711F00995089580E00895F0CF23
:1041D0000895E0912203F0912303309731F002809B
:1041E000F381E02D309709F009950895E0912203BD
:1041F000F0912303309759F024813581232B39F036
:1042000026E0DC012C930480F581E02D09950895CA
:10421000E0912203F0912303309759F026813781F2
:10422000232B39F022E0DC012C930680F781E02D6E
:1042300009950895A3E0B0E0E0E2F1E20C94EC2AE5
:10424000209120033091210328173907B1F0809382
:10425000200390932103E0912203F09123033097F0
:1042600061F00084F185E02D309739F023E0298357
:104270008A839B83CE01019609952396E2E00C94F4
:10428000082BA3E0B0E0E7E4F1E20C94EC2A2091E3
:104290001E0330911F0328173907B1F080931E03C6
:1042A00090931F03E0912203F0912303309761F074
:1042B0000084F185E02D309739F024E029838A834A
:1042C0009B83CE01019609952396E2E00C94082B7E
:1042D000CF93DF93C0910601D091070162DF811572
:1042E00021F08091410387FD11C09E012E5F3F4F59
:1042F00096E080E09150F90140812F5F3F4F4111DE
:104300008F5F9111F7CFDF91CF9108952091040134
:10431000309105012E5F3F4F9EE1EBCFCF93C82F29
:10432000811102C080E02EC03CDF811521F0809118
:10433000410387FD0FC08091060190910701FC01A8
:104340003296089620812C17F9F03196E817F90774
:10435000C9F7E8CF8C2F869586958695C03F10F7D4
:10436000E0910401F0910501E80FF11D228130E098
:10437000C77081E001C0880FCA95EAF7282381E061
:10438000232B81F2CF91089581E0FCCF9C01FC01A9
:10439000329680E09FEF4081461759F031969F3F5B
:1043A00019F4411101C0982F8F5F8630A1F79F3F0C
:1043B00009F40895290F311D97FD3A95F90162839B
:1043C0000895FC01329608962191261302C0DF0160
:1043D0001E92E817F907C1F70895262F269526950E
:1043E0002695603F60F4820F911DFC01677021E00B
:1043F00001C0220F6A95EAF78281822B8283089599
:10440000262F269526952695603F68F4820F911DEC
:10441000FC019DEF61FD97EF60FF959562FD929520
:104420008281892382830895CF93C82FBADE6C2FAF
:10443000811559F08091410387FF07C080910401E5
:1044400090910501CADFCF91089580910601909166
:1044500007019CDFF8CFCF93C82FA3DE6C2F811507
:1044600059F08091410387FF07C08091040190912A
:104470000501C6DFCF910895809106019091070153
:10448000A0DFF8CF8EDE811571F08091410387FFA8
:104490000AC0E0910401F091050132968EE111927B
:1044A0008A95E9F70895E0910601F09107013296A7
:1044B00086E0F5CFDC01FB0111969C91119781817B
:1044C000981322C012968C911297811519F092813F
:1044D00089131AC013968C911397811519F0938143
:1044E000891312C015968C911597811519F0958135
:1044F00089130AC014969C91911521F081E02481C2
:10450000291303C080E001C081E0817008950895FF
:10451000FECF08958F5F80932801609125017091EF
:1045200026018091270190912801F2CF83E08093AA
:1045300028016091250170912601809127019091B9
:104540002801E6CFE7CF089581E0809328016091AC
:104550002501709126018091270190912801D8CFE3
:10456000F3CF089591E0811101C090E0909327016D
:104570006091250170912601809127019091280179
:10458000C7CF80912701089580932601609125016E
:10459000709126018091270190912801B9CF8091D7
:1045A00026010895809325016091250170912601CF
:1045B0008091270190912801ABCF8091250108952A
:1045C00008950895FECF089508950895F9CF0895A8
:1045D0000F931F93CF93DF93F7DF0E94CD11F5DF89
:1045E00004E213E0C0E0D0E08C2F0E9411119C0186
:1045F000F801819331938F0191E0232B09F490E02E
:10460000D92BCF5FC53081F78D2FDF91CF911F91CF
:104610000F910895E82FF0E0EE0FFF1FEC5DFC4FC7
:1046200081E090E002C0880F991F6A95E2F7BC0113
:10463000808191816823792381E0672B09F480E0F0
:104640000895411115C0E82FF0E0EE0FFF1FEC5D5B
:10465000FC4F81E090E002C0880F991F6A95E2F755
:10466000809590952081318182239323808391834B
:104670000895CF93DF93EC016BD08C1B9D0BDF91E2
:10468000CF91089585B7806885BF85B7806885BF5D
:1046900008951F921FB61F9211248F939F93AF937B
:1046A000BF9380912E03811113C080918403909158
:1046B0008503A0918603B09187034196A11DB11D8A
:1046C0008093840390938503A0938603B09387031C
:1046D000BF91AF919F918F911F901FBE1F90189512
:1046E00080918C03843031F10E942C0410922E03AF
:1046F00088E190E020E40FB6F894A89580936000DC
:104700000FBE2093600083B7817F846083BF83B72F
:10471000816083BF7894889583B78E7F83BF0FB6FF
:10472000F894A89580916000886180936000109251
:1047300060000FBE08950E94B9070C94330482E014
:1047400084BD93E095BD9AEF97BD80936E00089568
:104750002FB7F8948091840390918503A0918603EC
:10476000B09187032FBF08952FB7F8946091840309
:104770007091850380918603909187032FBF0895E0
:1047800078941F921FB61F9211248F939F93AF931B
:10479000BF938091840390918503A0918603B0918B
:1047A00087030196A11DB11D809384039093850317
:1047B000A0938603B0938703BF91AF919F918F9190
:1047C0001F901FBE1F90189581E08093E00080E24B
:1047D0008093D8001092C9008FE19EE40197F1F711
:1047E00000C00000A7E0B0EBCD018093950390934B
:1047F0009603A0939703B093980388E19CE00FB6CB
:10480000F894A895809360000FBE90936000FFCF4E
:1048100088E19CE00FB6F894A895809360000FBEE5
:1048200090936000FFCF9B01BA0190918C0394306C
:10483000D9F48F708093E9009FEF8091E80085FDA7
:1048400006C085ED8A95F1F700009150B1F780918F
:10485000E80085FF09C040E050E0C901B6D1809171
:10486000E8008E778093E800089543E050E0BC01B3
:1048700082E0D9CF46E050E0BC0182E0D4CF40E2F4
:1048800050E0BC0182E0CFCFCF93DF93EC0179DE23
:1048900048E050E0BE0181E0C6DF88E0FE01AFE203
:1048A000B3E001900D928A95E1F7DF91CF910895E1
:1048B00080918B03811107C016D366D38091E200EB
:1048C00084608093E200089510928B0308953CDE8B
:1048D00081E048CE6091880381E0611101C080E0F1
:1048E00025CE90918C0381E0943009F080E06091B6
:1048F000880328CE42E061EC81E071D242E261ECB3
:1049000082E06DD290918C0381E0943009F080E0D8
:1049100060918803FFCD80918E03893081F148F446
:10492000823009F496C0833009F457C0813041F0D9
:1049300008958A3009F480C08B3009F468C0089566
:1049400080918D03813A09F047C08091E800877F0C
:104950008093E8008091910390919203892B59F004
:1049600060E080E090E070E07DD18091E8008B779E
:104970008093E800089568E08FE293E0F4CF80919F
:104980008D03813249F580919103909192030297B2
:1049900018F58091E800877F8093E8008091E80017
:1049A00082FF16C02091F3008091F200922F0297AF
:1049B00031F48091F100813011F0863019F480914A
:1049C000F100E2DD8091E8008B778093E8003BC244
:1049D00080918C038111E2CF089580918D03813AFB
:1049E000D9F78091910390919203892BA9F7809137
:1049F000E800877F8093E8008091E80080FFFCCF8B
:104A0000C0DD8093F1008091E8008E77DECF809149
:104A10008D03813209F78091910390919203892B44
:104A2000D9F68091E800877F8093E8000CD28091CE
:104A30008F0398DD0C94B90780918D03813261F664
:104A40008091E800877F8093E800FDD180919003FA
:104A5000A9CD80918D03813A09F0BECF8091E80005
:104A6000877F8093E8008091E80080FFFCCFA5DD80
:104A7000C8CF84B7877F84BF0FB6F894A89580917C
:104A80006000886180936000109260000FBE80E833
:104A900090E00FB6F89480936100909361000FBE90
:104AA0005FCD21D271D2E2EEF0E08081846080831C
:104AB0007894CDC489E291E06DCB80918C038530F0
:104AC00029F480918C03853011F035CE089508DEED
:104AD0007FDD8115B1F380918A03811591F35FD059
:104AE0000E94B907EECF08959A0140919303509127
:104AF000940300C0492F50E043305105C9F070F4D1
:104B000041305105E9F14230510571F48BE390E0F9
:104B100040E954E0F9014083518308954132510541
:104B2000E9F04232510519F180E090E040E0F2CF27
:104B3000482F50E0813061F04230510561F0ECE8DF
:104B4000F4E04115510581F7849190E0AF01E2CF87
:104B5000EEE7F4E0F9CFE2E7F4E0F6CF613071057B
:104B6000A0F011F789E090E04BEB54E0D3CF613037
:104B7000710580F0C9F686EB90E04DED54E0CACFA8
:104B800082E190E04BEC54E0C5CF89E090E042EA4E
:104B900054E0C0CF84E490E043E955E0BBCF80E12E
:104BA00089BD82E189BD09B400FEFDCF8091D800A6
:104BB0008F7D8093D8008091E00082608093E00038
:104BC0008091E00081FDFCCF0895AF92BF92CF921B
:104BD000DF92FF920F931F93CF93DF936C01EB0152
:104BE0008A0150D1F82E811123C00115110539F029
:104BF000F80180819181C81BD90BC80ED91EA12C48
:104C0000B12C2097A9F08091E80085FD21C080910A
:104C1000E8008E778093E80001151105A1F0F801F6
:104C2000808191818A0D9B1D8083918385E0F82E80
:104C30008F2DDF91CF911F910F91FF90DF90CF903B
:104C4000BF90AF9008951ED18115E9F2F82EF0CFF4
:104C5000F60181916F018093F10021978FEFA81ADF
:104C6000B80ACFCFFC01209193033091940326170B
:104C7000370720F06115710569F09B0190E021155F
:104C8000310571F491110CC08091E80082FF38C0A9
:104C900080E008959091E8009E779093E800EDCF32
:104CA00080918C038115C1F18530C1F18091E800BC
:104CB00083FD30C08091E80082FDE6CF8091E8005E
:104CC00080FFDDCF8091F3004091F200582F211535
:104CD000310519F04830510558F091E04830510540
:104CE00009F090E04091E8004E774093E800C7CF8C
:104CF00081918093F100215031094F5F5F4FE7CFE1
:104D000080918C03811541F0853041F08091E8005D
:104D100083FFBACF81E0089582E0089583E008958B
:104D2000FC0120919303309194032617370720F05C
:104D30006115710569F09B0190E02115310571F451
:104D400091110CC08091E80082FF39C080E0089585
:104D50008091E8008E778093E800EDCF80918C03FE
:104D60008115C9F18530C9F18091E80083FD31C01A
:104D70008091E80082FDE6CF8091E80080FFDDCFE2
:104D80008091F3004091F200582F2115310519F060
:104D90004830510558F091E04830510509F090E055
:104DA0008091E8008E778093E800C7CF849180934C
:104DB000F1003196215031094F5F5F4FE6CF80916E
:104DC0008C03811541F0853041F08091E80083FF2C
:104DD000B9CF81E0089582E0089583E00895982F87
:104DE000973028F08F708093E90081E008959093C8
:104DF000E900242F762F50E0981731F07091EC00E5
:104E00002091ED005091F00021FD02C09F5FE8CF9E
:104E10003091EB003E7F3093EB003091ED003D7F11
:104E20003093ED003091EB0031603093EB007093E4
:104E3000EC002093ED005093F0002091EE0027FD50
:104E4000E5CF80E0089580918D0387FF13C08091A6
:104E5000E80082FF06C08091E8008B778093E8002D
:104E6000089580918C038111F2CF089580918C0375
:104E70008115D9F38091E80080FFF8CF8091E80098
:104E80008E77ECCF2091E4003091E50095E6A90102
:104E90002091EC00822F817020FF06C08091E800F5
:104EA00080FF06C080E008952091E80022FD1AC02E
:104EB00080918C03811589F0853089F08091EB0019
:104EC00085FD0FC02091E4003091E50042175307A3
:104ED000F9F29150E1F684E0089582E0089583E0CC
:104EE000089581E008955FD066D0E0EEF0E0808123
:104EF00081608083E8ED80818F77808319BCA7ED86
:104F0000B0E08C918E7F8C9380818F7E8083109215
:104F10008B030895CF93DF9346D04DD0C8EDD0E0FA
:104F200088818F77888388818068888388818F7D56
:104F3000888319BC10928C031092880310928A0304
:104F400010928903E0EEF0E080818B7F808388817E
:104F50008160888342E060E080E041DFE1EEF0E0E4
:104F600080818E7F8083E2EE80818160808380817A
:104F700088608083E0EE80818E7F8083888180617D
:104F80008883DF91CF910895E8EDF0E080818F7EF6
:104F90008083E7ED80818160808384E082BF81E04F
:104FA00080938B03B7CFE8EDF0E080818E7F808324
:104FB0001092E20008951092DA001092E100089534
:104FC0001F920F920FB60F9211242F933F934F937E
:104FD0005F936F937F938F939F93AF93BF93EF9361
:104FE000FF938091E10082FF0AC08091E20082FF7E
:104FF00006C08091E1008B7F8093E10027D28091F1
:10500000DA0080FF18C08091D80080FF14C0809122
:10501000DA008E7F8093DA008091D90080FF8FC004
:1050200080E189BD82E189BD09B400FEFDCF81E048
:1050300080938C033DDC8091E10080FF18C080915B
:10504000E20080FF14C08091E2008E7F8093E20036
:105050008091E20080618093E2008091D8008062BC
:105060008093D80019BC85E080938C0333DC809159
:10507000E10084FF28C08091E20084FF24C080E129
:1050800089BD82E189BD09B400FEFDCF8091D800C1
:105090008F7D8093D8008091E1008F7E8093E10026
:1050A0008091E2008F7E8093E2008091E200816037
:1050B0008093E20080918803811509F445C084E063
:1050C00080938C030EDC8091E10083FF27C08091E8
:1050D000E20083FF23C08091E100877F8093E1009D
:1050E00082E080938C03109288038091E1008E7F90
:1050F0008093E1008091E2008E7F8093E2008091B6
:10510000E20080618093E20042E060E080E067DEE0
:105110008091F00088608093F000D9DBFF91EF91DF
:10512000BF91AF919F918F917F916F915F914F91BF
:105130003F912F910F900FBE0F901F90189519BCA3
:1051400010928C03C1DB77CF8091E30087FF02C010
:1051500083E0B6CF81E0B4CF1F920F920FB60F92CB
:1051600011241F932F933F934F935F936F937F93DC
:105170008F939F93AF93BF93CF93DF93EF93FF935F
:10518000E9EEF0E080811091EC008F7010FB1127A8
:1051900017F9182B1082C0EFD0E08881877F8883B1
:1051A00078941CD0E9EEF0E01082888188608883D2
:1051B0001F701083FF91EF91DF91CF91BF91AF915D
:1051C0009F918F917F916F915F914F913F912F911F
:1051D0001F910F900FBE0F901F901895AAE2B0E09C
:1051E000E3EFF8E2F8C18DE893E0FC01019620912D
:1051F000F100208323E085399207B9F78CDB809199
:10520000E80083FF37C080918D0390918E039A3020
:1052100088F5E92FF0E0E358F34DB8C1803889F004
:10522000823841F5809191038F70873018F5809313
:10523000E9008091EB0085FB882780F91092E90056
:1052400006C080918A03880F90918903892B9091E1
:10525000E800977F9093E8008093F1001092F100AE
:105260008091E8008E7722C0811115C080918F0354
:10527000813001F18091E80083FF0AC08091E8004D
:10528000877F8093E8008091EB0080628093EB0041
:10529000AA96E3E0BCC1823069F780918F03811543
:1052A00079F01092E9008091E800877F8093E80010
:1052B000CADDE0CF933009F080E080938A03F1CF1C
:1052C000809191038F70282F2150263098F680937B
:1052D000E9002091EB0020FFE4CF933031F480917E
:1052E000EB0080628093EB00DCCF9091EB0090614B
:1052F0009093EB0021E001C0220F8A95EAF72093FA
:10530000EA001092EA008091EB008860EBCF8111F7
:10531000B1CF80918F038F77182F8091E300807831
:10532000812B8093E3008091E800877F8093E800E1
:105330008ADD8091E80080FFFCCF8091E3008068E7
:105340008093E30083E0111101C082E080938C031D
:1053500091CF8058823008F08DCF80918F0390914B
:1053600090038C3D23E0920789F583E08A838AE2EB
:1053700089834FB7F894DE01139620E03EE051E2B6
:10538000E32FF0E050935700849120FF03C08295F3
:105390008F703F5F8F708A30B8F0895C8D931D925B
:1053A0002F5F243169F74FBF8091E800877F80939A
:1053B000E8006AE270E0CE01019654DC8091E800DA
:1053C0008B778093E80056CF805DE8CF60919103A2
:1053D00070919203AE014F5F5F4F86DBBC01892B5A
:1053E00009F448CF9091E800977F9093E800898175
:1053F0009A8196DCE3CF803809F03CCF8091E800B9
:10540000877F8093E800809188038093F10028CF04
:10541000811130CF90918F03923008F02BCF809183
:10542000E800877F8093E800909388030CDD8091EB
:105430008803811529F084E080938C035BDA1ACF0E
:105440008091E30087FDF7CF81E0F6CF0895CF93F9
:1054500080918C03811591F08091E900C091EC005E
:105460008F70C0FBCC27C7F9C82B1092E900809140
:10547000E80083FDB3DECF70C093E900CF910895BB
:1054800005D0332312F48A1B9B0B87C0A29FB00167
:10549000B39FC001A39F700D811D1124911DB29F68
:1054A000700D811D1124911D0895DB018F939F9331
:1054B00079D0BF91AF91A29F800D911DA39F900DB8
:1054C000B29F900D11240895992778E0880F991FB5
:1054D000961708F0961B881F7A95C9F7809508954E
:1054E00087FB082E062687FD819567FD6195ECDF19
:1054F0000EF4919507FC81950895AA1BBB1B51E101
:1055000007C0AA1FBB1FA617B70710F0A61BB70B33
:10551000881F991F5A95A9F780959095BC01CD01D8
:10552000089597FB072E16F4009406D077FD08D057
:10553000E4DF07FC05D03EF4909581959F4F0895D8
:10554000709561957F4F0895A1E21A2EAA1BBB1B8F
:10555000FD010DC0AA1FBB1FEE1FFF1FA217B3073F
:10556000E407F50720F0A21BB30BE40BF50B661F55
:10557000771F881F991F1A9469F760957095809519
:1055800090959B01AC01BD01CF010895EE0FFF1F67
:105590000590F491E02D099479DFB7FF0895821BFF
:1055A000930B089573DFA59F900DB49F900DA49F5A
:1055B000800D911D112408952F923F924F925F927A
:1055C0006F927F928F929F92AF92BF92CF92DF9213
:1055D000EF92FF920F931F93CF93DF93CDB7DEB778
:1055E000CA1BDB0B0FB6F894DEBF0FBECDBF09940C
:1055F0002A88398848885F846E847D848C849B8463
:10560000AA84B984C884DF80EE80FD800C811B8170
:10561000AA81B981CE0FD11D0FB6F894DEBF0FBE9F
:10562000CDBFED010895AAE0B0E0E8E1FBE2D4CF00
:1056300089879A87FC0160817181828193810097BB
:105640007040604021F464E279ED8BE597E02DE154
:1056500033EF41E050E094D029833A834B835C835D
:105660009B01AC01A7EAB1E49DDF6D837E838F834C
:105670009887ACEEB4EF29813A814B815C819ED052
:105680002D813E814F815885260F371F481F591F96
:10569000C901DA01B7FF03C00197A109B048E98544
:1056A000FA8580839183A283B3839F772A96E2E071
:1056B000AFCFB9CF80E091E0B6CF80930001909357
:1056C000010110920201109203010895FC01415062
:1056D000504030F001900616D1F73197CF01089570
:1056E000882799270895FB01DC0104C08D91019062
:1056F000801921F441505040C8F7881B990B089538
:10570000F999FECF92BD81BDF89A992780B5089589
:10571000A6E1B0E044E050E025C0A8E1B0E042E0FE
:1057200050E020C0262FF999FECF92BD81BDF89A96
:10573000019700B4021639F01FBA20BD0FB6F894D5
:10574000FA9AF99A0FBE08950396272FECDFEADF45
:10575000252FE9DF242FE7CF0196272FE4DFE2CFC3
:10576000DC01CB01FC01F999FECF06C0F2BDE1BD21
:10577000F89A319600B40D9241505040B8F7089510
:10578000052E97FB16F400940FD057FD05D0DCDEF4
:1057900007FC02D046F408C05095409530952195FD
:1057A0003F4F4F4F5F4F089590958095709561954D
:1057B0007F4F8F4F9F4F0895B7FFF4CEF3DE821BCC
:1057C000930B0895F894FFCFEE05EE052506250608
:1057D0007C069806160616069C060E071B071B0776
:1057E0007212751279127D128112851289128D1230
:1057F0009112951299129F19A319A919A519A71900
:10580000AB19AD19CB1BC21BCE1BC01B1E1C1E1C13
:10581000C01B1E1C1E1CEA1B1E1CF51B001C1E1C94
:105820001E1C1E1C1E1CC01B1E1C1E1CC01B1E1C66
:10583000DC1B1E1C1E1C1C1C1C1C1C1C1C1C1C1CE5
:105840001C1C1C1C1C1C1C1C0B1C1E1CCB1BBE1B58
:105850001E1C1E1C1E1C1E1C1E1C1E1C1E1C1E1C78
:105860001E1C1E1C0B1C1E1C1E1CC01B1E1C121CE6
:10587000121C121C121C121C121C121C121C121CB8
:105880000B1C571DC61D5F1D291D2D1D631D311DC0
:10589000671D731D3D1DBF1D411D771D451D7B1DD2
:1058A000A01D491D7F1DA71D4F1D851D8D1D351D6B
:1058B0006B1D391D6F1D531D891D971DB01DBD1D0D
:1058C000231D5B1DCD1D661E6B1E6D1E721E821E6E
:1058D000821E821E821E821E821E821E821E741ED6
:1058E000781E7B1E801E8F1E951E991EA520AB2044
:1058F00096209F20B120B720BD200E2934293A29B7
:0E59000034293A298729A9293A29FB29082A9E
:10590E00010000008602A602010102000C000C0C30
:10591E0001191A1B1C1D1E1F2021220601280850CA
:10592E00011E0A140100000100CF2244243F243A34
:10593E00243524E200E900EA00B500B600B700CD38
:10594E00008301CC008A01920194012102230224DA
:10595E00022502260227022A02B300B4006F00704D
:10596E00009F01CB019F02A002E200E900EA00B510
:10597E0000B600B700CD008301CC008A01920194DD
:10598E00012102230224022502260227022A02B343
:10599E0000B4006F0070009F01CB019F02A002F0C7
:1059AE00F1C66766369431373534979633F7909152
:1059BE0092939500010202020206060609090909E0
:1059CE0009090F0F0F0F0F0F1515151819191919A2
:1059DE0019191919191923242525252525254B1B98
:0659EE004D1B581B701B4D
:00000001FF
